{
  "transactions": [
    {
      "hash": "0x5314c1365fb17ac2a9dd23db8ebf24869d2e352c1d4cead45bb6540697b2d85e",
      "transactionType": "CREATE",
      "contractName": null,
      "contractAddress": "0xbc7109126a7d9c4bfdfe7aad249cc9757b47f4ee",
      "function": null,
      "arguments": null,
      "transaction": {
        "from": "0x1faf0b93e7a1d980a41270fcced7bc0f30dbf8fe",
        "gas": "0xc706b",
        "value": "0x0",
        "input": "0x60806040523480156200001157600080fd5b5060405162000db138038062000db183398101604081905262000034916200022b565b8181600362000044838262000325565b50600462000053828262000325565b5050506200008b336200006b6200009360201b60201c565b6200007890600a62000506565b620000859060656200051e565b62000098565b50506200054e565b601290565b6001600160a01b038216620000f35760405162461bcd60e51b815260206004820152601f60248201527f45524332303a206d696e7420746f20746865207a65726f206164647265737300604482015260640160405180910390fd5b806002600082825462000107919062000538565b90915550506001600160a01b038216600081815260208181526040808320805486019055518481527fddf252ad1be2c89b69c2b068fc378daa952ba7f163c4a11628f55a4df523b3ef910160405180910390a35050565b505050565b634e487b7160e01b600052604160045260246000fd5b600082601f8301126200018b57600080fd5b81516001600160401b0380821115620001a857620001a862000163565b604051601f8301601f19908116603f01168101908282118183101715620001d357620001d362000163565b8160405283815260209250866020858801011115620001f157600080fd5b600091505b83821015620002155785820183015181830184015290820190620001f6565b6000602085830101528094505050505092915050565b600080604083850312156200023f57600080fd5b82516001600160401b03808211156200025757600080fd5b620002658683870162000179565b935060208501519150808211156200027c57600080fd5b506200028b8582860162000179565b9150509250929050565b600181811c90821680620002aa57607f821691505b602082108103620002cb57634e487b7160e01b600052602260045260246000fd5b50919050565b601f8211156200015e576000816000526020600020601f850160051c81016020861015620002fc5750805b601f850160051c820191505b818110156200031d5782815560010162000308565b505050505050565b81516001600160401b0381111562000341576200034162000163565b620003598162000352845462000295565b84620002d1565b602080601f831160018114620003915760008415620003785750858301515b600019600386901b1c1916600185901b1785556200031d565b600085815260208120601f198616915b82811015620003c257888601518255948401946001909101908401620003a1565b5085821015620003e15787850151600019600388901b60f8161c191681555b5050505050600190811b01905550565b634e487b7160e01b600052601160045260246000fd5b600181815b80851115620004485781600019048211156200042c576200042c620003f1565b808516156200043a57918102915b93841c93908002906200040c565b509250929050565b600082620004615750600162000500565b81620004705750600062000500565b81600181146200048957600281146200049457620004b4565b600191505062000500565b60ff841115620004a857620004a8620003f1565b50506001821b62000500565b5060208310610133831016604e8410600b8410161715620004d9575081810a62000500565b620004e5838362000407565b8060001904821115620004fc57620004fc620003f1565b0290505b92915050565b60006200051760ff84168362000450565b9392505050565b8082028115828204841417620005005762000500620003f1565b80820180821115620005005762000500620003f1565b610853806200055e6000396000f3fe608060405234801561001057600080fd5b50600436106100a95760003560e01c80633950935111610071578063395093511461012357806370a082311461013657806395d89b411461015f578063a457c2d714610167578063a9059cbb1461017a578063dd62ed3e1461018d57600080fd5b806306fdde03146100ae578063095ea7b3146100cc57806318160ddd146100ef57806323b872dd14610101578063313ce56714610114575b600080fd5b6100b66101a0565b6040516100c3919061069c565b60405180910390f35b6100df6100da366004610707565b610232565b60405190151581526020016100c3565b6002545b6040519081526020016100c3565b6100df61010f366004610731565b61024c565b604051601281526020016100c3565b6100df610131366004610707565b610270565b6100f361014436600461076d565b6001600160a01b031660009081526020819052604090205490565b6100b6610292565b6100df610175366004610707565b6102a1565b6100df610188366004610707565b610321565b6100f361019b36600461078f565b61032f565b6060600380546101af906107c2565b80601f01602080910402602001604051908101604052809291908181526020018280546101db906107c2565b80156102285780601f106101fd57610100808354040283529160200191610228565b820191906000526020600020905b81548152906001019060200180831161020b57829003601f168201915b5050505050905090565b60003361024081858561035a565b60019150505b92915050565b60003361025a85828561047e565b6102658585856104f8565b506001949350505050565b600033610240818585610283838361032f565b61028d91906107fc565b61035a565b6060600480546101af906107c2565b600033816102af828661032f565b9050838110156103145760405162461bcd60e51b815260206004820152602560248201527f45524332303a2064656372656173656420616c6c6f77616e63652062656c6f77604482015264207a65726f60d81b60648201526084015b60405180910390fd5b610265828686840361035a565b6000336102408185856104f8565b6001600160a01b03918216600090815260016020908152604080832093909416825291909152205490565b6001600160a01b0383166103bc5760405162461bcd60e51b8152602060048201526024808201527f45524332303a20617070726f76652066726f6d20746865207a65726f206164646044820152637265737360e01b606482015260840161030b565b6001600160a01b03821661041d5760405162461bcd60e51b815260206004820152602260248201527f45524332303a20617070726f766520746f20746865207a65726f206164647265604482015261737360f01b606482015260840161030b565b6001600160a01b0383811660008181526001602090815260408083209487168084529482529182902085905590518481527f8c5be1e5ebec7d5bd14f71427d1e84f3dd0314c0f7b2291e5b200ac8c7c3b925910160405180910390a3505050565b600061048a848461032f565b905060001981146104f257818110156104e55760405162461bcd60e51b815260206004820152601d60248201527f45524332303a20696e73756666696369656e7420616c6c6f77616e6365000000604482015260640161030b565b6104f2848484840361035a565b50505050565b6001600160a01b03831661055c5760405162461bcd60e51b815260206004820152602560248201527f45524332303a207472616e736665722066726f6d20746865207a65726f206164604482015264647265737360d81b606482015260840161030b565b6001600160a01b0382166105be5760405162461bcd60e51b815260206004820152602360248201527f45524332303a207472616e7366657220746f20746865207a65726f206164647260448201526265737360e81b606482015260840161030b565b6001600160a01b038316600090815260208190526040902054818110156106365760405162461bcd60e51b815260206004820152602660248201527f45524332303a207472616e7366657220616d6f756e7420657863656564732062604482015265616c616e636560d01b606482015260840161030b565b6001600160a01b03848116600081815260208181526040808320878703905593871680835291849020805487019055925185815290927fddf252ad1be2c89b69c2b068fc378daa952ba7f163c4a11628f55a4df523b3ef910160405180910390a36104f2565b60006020808352835180602085015260005b818110156106ca578581018301518582016040015282016106ae565b506000604082860101526040601f19601f8301168501019250505092915050565b80356001600160a01b038116811461070257600080fd5b919050565b6000806040838503121561071a57600080fd5b610723836106eb565b946020939093013593505050565b60008060006060848603121561074657600080fd5b61074f846106eb565b925061075d602085016106eb565b9150604084013590509250925092565b60006020828403121561077f57600080fd5b610788826106eb565b9392505050565b600080604083850312156107a257600080fd5b6107ab836106eb565b91506107b9602084016106eb565b90509250929050565b600181811c908216806107d657607f821691505b6020821081036107f657634e487b7160e01b600052602260045260246000fd5b50919050565b8082018082111561024657634e487b7160e01b600052601160045260246000fdfea2646970667358221220ce4cb5a40623116d8483c5455cfc253421d9fc176bbbe2095b92b53033f1353764736f6c63430008180033000000000000000000000000000000000000000000000000000000000000004000000000000000000000000000000000000000000000000000000000000000800000000000000000000000000000000000000000000000000000000000000006546f6b656e3300000000000000000000000000000000000000000000000000000000000000000000000000000000000000000000000000000000000000000004544b4e3300000000000000000000000000000000000000000000000000000000",
        "nonce": "0x4f",
        "chainId": "0xaa36a7"
      },
      "additionalContracts": [],
      "isFixedGasLimit": false
    },
    {
      "hash": "0x3cd9324e540f0dc9523f713fec0fac1d23e8d1a6585d34c0c9ffca6076985928",
      "transactionType": "CREATE",
      "contractName": null,
      "contractAddress": "0x652a88205fbf546528dcb2b84bcf696f5d46216f",
      "function": null,
      "arguments": null,
      "transaction": {
        "from": "0x1faf0b93e7a1d980a41270fcced7bc0f30dbf8fe",
        "gas": "0xc706b",
        "value": "0x0",
        "input": "0x60806040523480156200001157600080fd5b5060405162000db138038062000db183398101604081905262000034916200022b565b8181600362000044838262000325565b50600462000053828262000325565b5050506200008b336200006b6200009360201b60201c565b6200007890600a62000506565b620000859060656200051e565b62000098565b50506200054e565b601290565b6001600160a01b038216620000f35760405162461bcd60e51b815260206004820152601f60248201527f45524332303a206d696e7420746f20746865207a65726f206164647265737300604482015260640160405180910390fd5b806002600082825462000107919062000538565b90915550506001600160a01b038216600081815260208181526040808320805486019055518481527fddf252ad1be2c89b69c2b068fc378daa952ba7f163c4a11628f55a4df523b3ef910160405180910390a35050565b505050565b634e487b7160e01b600052604160045260246000fd5b600082601f8301126200018b57600080fd5b81516001600160401b0380821115620001a857620001a862000163565b604051601f8301601f19908116603f01168101908282118183101715620001d357620001d362000163565b8160405283815260209250866020858801011115620001f157600080fd5b600091505b83821015620002155785820183015181830184015290820190620001f6565b6000602085830101528094505050505092915050565b600080604083850312156200023f57600080fd5b82516001600160401b03808211156200025757600080fd5b620002658683870162000179565b935060208501519150808211156200027c57600080fd5b506200028b8582860162000179565b9150509250929050565b600181811c90821680620002aa57607f821691505b602082108103620002cb57634e487b7160e01b600052602260045260246000fd5b50919050565b601f8211156200015e576000816000526020600020601f850160051c81016020861015620002fc5750805b601f850160051c820191505b818110156200031d5782815560010162000308565b505050505050565b81516001600160401b0381111562000341576200034162000163565b620003598162000352845462000295565b84620002d1565b602080601f831160018114620003915760008415620003785750858301515b600019600386901b1c1916600185901b1785556200031d565b600085815260208120601f198616915b82811015620003c257888601518255948401946001909101908401620003a1565b5085821015620003e15787850151600019600388901b60f8161c191681555b5050505050600190811b01905550565b634e487b7160e01b600052601160045260246000fd5b600181815b80851115620004485781600019048211156200042c576200042c620003f1565b808516156200043a57918102915b93841c93908002906200040c565b509250929050565b600082620004615750600162000500565b81620004705750600062000500565b81600181146200048957600281146200049457620004b4565b600191505062000500565b60ff841115620004a857620004a8620003f1565b50506001821b62000500565b5060208310610133831016604e8410600b8410161715620004d9575081810a62000500565b620004e5838362000407565b8060001904821115620004fc57620004fc620003f1565b0290505b92915050565b60006200051760ff84168362000450565b9392505050565b8082028115828204841417620005005762000500620003f1565b80820180821115620005005762000500620003f1565b610853806200055e6000396000f3fe608060405234801561001057600080fd5b50600436106100a95760003560e01c80633950935111610071578063395093511461012357806370a082311461013657806395d89b411461015f578063a457c2d714610167578063a9059cbb1461017a578063dd62ed3e1461018d57600080fd5b806306fdde03146100ae578063095ea7b3146100cc57806318160ddd146100ef57806323b872dd14610101578063313ce56714610114575b600080fd5b6100b66101a0565b6040516100c3919061069c565b60405180910390f35b6100df6100da366004610707565b610232565b60405190151581526020016100c3565b6002545b6040519081526020016100c3565b6100df61010f366004610731565b61024c565b604051601281526020016100c3565b6100df610131366004610707565b610270565b6100f361014436600461076d565b6001600160a01b031660009081526020819052604090205490565b6100b6610292565b6100df610175366004610707565b6102a1565b6100df610188366004610707565b610321565b6100f361019b36600461078f565b61032f565b6060600380546101af906107c2565b80601f01602080910402602001604051908101604052809291908181526020018280546101db906107c2565b80156102285780601f106101fd57610100808354040283529160200191610228565b820191906000526020600020905b81548152906001019060200180831161020b57829003601f168201915b5050505050905090565b60003361024081858561035a565b60019150505b92915050565b60003361025a85828561047e565b6102658585856104f8565b506001949350505050565b600033610240818585610283838361032f565b61028d91906107fc565b61035a565b6060600480546101af906107c2565b600033816102af828661032f565b9050838110156103145760405162461bcd60e51b815260206004820152602560248201527f45524332303a2064656372656173656420616c6c6f77616e63652062656c6f77604482015264207a65726f60d81b60648201526084015b60405180910390fd5b610265828686840361035a565b6000336102408185856104f8565b6001600160a01b03918216600090815260016020908152604080832093909416825291909152205490565b6001600160a01b0383166103bc5760405162461bcd60e51b8152602060048201526024808201527f45524332303a20617070726f76652066726f6d20746865207a65726f206164646044820152637265737360e01b606482015260840161030b565b6001600160a01b03821661041d5760405162461bcd60e51b815260206004820152602260248201527f45524332303a20617070726f766520746f20746865207a65726f206164647265604482015261737360f01b606482015260840161030b565b6001600160a01b0383811660008181526001602090815260408083209487168084529482529182902085905590518481527f8c5be1e5ebec7d5bd14f71427d1e84f3dd0314c0f7b2291e5b200ac8c7c3b925910160405180910390a3505050565b600061048a848461032f565b905060001981146104f257818110156104e55760405162461bcd60e51b815260206004820152601d60248201527f45524332303a20696e73756666696369656e7420616c6c6f77616e6365000000604482015260640161030b565b6104f2848484840361035a565b50505050565b6001600160a01b03831661055c5760405162461bcd60e51b815260206004820152602560248201527f45524332303a207472616e736665722066726f6d20746865207a65726f206164604482015264647265737360d81b606482015260840161030b565b6001600160a01b0382166105be5760405162461bcd60e51b815260206004820152602360248201527f45524332303a207472616e7366657220746f20746865207a65726f206164647260448201526265737360e81b606482015260840161030b565b6001600160a01b038316600090815260208190526040902054818110156106365760405162461bcd60e51b815260206004820152602660248201527f45524332303a207472616e7366657220616d6f756e7420657863656564732062604482015265616c616e636560d01b606482015260840161030b565b6001600160a01b03848116600081815260208181526040808320878703905593871680835291849020805487019055925185815290927fddf252ad1be2c89b69c2b068fc378daa952ba7f163c4a11628f55a4df523b3ef910160405180910390a36104f2565b60006020808352835180602085015260005b818110156106ca578581018301518582016040015282016106ae565b506000604082860101526040601f19601f8301168501019250505092915050565b80356001600160a01b038116811461070257600080fd5b919050565b6000806040838503121561071a57600080fd5b610723836106eb565b946020939093013593505050565b60008060006060848603121561074657600080fd5b61074f846106eb565b925061075d602085016106eb565b9150604084013590509250925092565b60006020828403121561077f57600080fd5b610788826106eb565b9392505050565b600080604083850312156107a257600080fd5b6107ab836106eb565b91506107b9602084016106eb565b90509250929050565b600181811c908216806107d657607f821691505b6020821081036107f657634e487b7160e01b600052602260045260246000fd5b50919050565b8082018082111561024657634e487b7160e01b600052601160045260246000fdfea2646970667358221220ce4cb5a40623116d8483c5455cfc253421d9fc176bbbe2095b92b53033f1353764736f6c63430008180033000000000000000000000000000000000000000000000000000000000000004000000000000000000000000000000000000000000000000000000000000000800000000000000000000000000000000000000000000000000000000000000006546f6b656e3400000000000000000000000000000000000000000000000000000000000000000000000000000000000000000000000000000000000000000004544b4e3400000000000000000000000000000000000000000000000000000000",
        "nonce": "0x50",
        "chainId": "0xaa36a7"
      },
      "additionalContracts": [],
      "isFixedGasLimit": false
    },
    {
      "hash": "0x7739bc5158c41ffc50f3d54a3e7eded75cb9d16467103ea7706bbc6b611dc585",
      "transactionType": "CALL",
      "contractName": null,
      "contractAddress": "0xbc7109126a7d9c4bfdfe7aad249cc9757b47f4ee",
      "function": "transfer(address,uint256)",
      "arguments": [
        "0x2d81627869E586251c19f7b586FfdD71cf684cAD",
        "1"
      ],
      "transaction": {
        "from": "0x1faf0b93e7a1d980a41270fcced7bc0f30dbf8fe",
        "to": "0xbc7109126a7d9c4bfdfe7aad249cc9757b47f4ee",
        "gas": "0x125b2",
        "value": "0x0",
        "input": "0xa9059cbb0000000000000000000000002d81627869e586251c19f7b586ffdd71cf684cad0000000000000000000000000000000000000000000000000000000000000001",
        "nonce": "0x51",
        "chainId": "0xaa36a7"
      },
      "additionalContracts": [],
      "isFixedGasLimit": false
    },
    {
      "hash": "0x1307a61dc821c352f1fa3d235e7769490fc30d396259fe581760f48773815d42",
      "transactionType": "CALL",
      "contractName": null,
      "contractAddress": "0xbc7109126a7d9c4bfdfe7aad249cc9757b47f4ee",
      "function": "approve(address,uint256)",
      "arguments": [
        "0x2d81627869E586251c19f7b586FfdD71cf684cAD",
        "1"
      ],
      "transaction": {
        "from": "0x1faf0b93e7a1d980a41270fcced7bc0f30dbf8fe",
        "to": "0xbc7109126a7d9c4bfdfe7aad249cc9757b47f4ee",
        "gas": "0xf945",
        "value": "0x0",
        "input": "0x095ea7b30000000000000000000000002d81627869e586251c19f7b586ffdd71cf684cad0000000000000000000000000000000000000000000000000000000000000001",
        "nonce": "0x52",
        "chainId": "0xaa36a7"
      },
      "additionalContracts": [],
      "isFixedGasLimit": false
    },
    {
      "hash": "0x3b8a80b75deac0b7ff1b6ed7703276fdc1403efaf4bc660a927d8810ce847668",
      "transactionType": "CALL",
      "contractName": null,
      "contractAddress": "0x2d81627869e586251c19f7b586ffdd71cf684cad",
      "function": "swap(address,address,uint256)",
      "arguments": [
        "0xBc7109126A7d9C4BfdFe7Aad249CC9757b47F4ee",
        "0x33858365d5FfeFC0AFf57751cB7a91EfEdF6162c",
        "1"
      ],
      "transaction": {
        "from": "0x1faf0b93e7a1d980a41270fcced7bc0f30dbf8fe",
        "to": "0x2d81627869e586251c19f7b586ffdd71cf684cad",
        "gas": "0x18d3c",
        "value": "0x0",
        "input": "0xdf791e50000000000000000000000000bc7109126a7d9c4bfdfe7aad249cc9757b47f4ee00000000000000000000000033858365d5ffefc0aff57751cb7a91efedf6162c0000000000000000000000000000000000000000000000000000000000000001",
        "nonce": "0x53",
        "chainId": "0xaa36a7"
      },
      "additionalContracts": [],
      "isFixedGasLimit": false
    },
    {
      "hash": "0xd859e28a9a655939b13bb982cae94e95ff36af50accaa5cf72edb6d94c35ba2d",
      "transactionType": "CALL",
      "contractName": null,
      "contractAddress": "0x652a88205fbf546528dcb2b84bcf696f5d46216f",
      "function": "transfer(address,uint256)",
      "arguments": [
        "0x2d81627869E586251c19f7b586FfdD71cf684cAD",
        "1"
      ],
      "transaction": {
        "from": "0x1faf0b93e7a1d980a41270fcced7bc0f30dbf8fe",
        "to": "0x652a88205fbf546528dcb2b84bcf696f5d46216f",
        "gas": "0x125b2",
        "value": "0x0",
        "input": "0xa9059cbb0000000000000000000000002d81627869e586251c19f7b586ffdd71cf684cad0000000000000000000000000000000000000000000000000000000000000001",
        "nonce": "0x54",
        "chainId": "0xaa36a7"
      },
      "additionalContracts": [],
      "isFixedGasLimit": false
    },
    {
      "hash": "0x83965cc22413c179a016778ef698f2ae068457884ffba40323c3475fd6833f4e",
      "transactionType": "CALL",
      "contractName": null,
      "contractAddress": "0x652a88205fbf546528dcb2b84bcf696f5d46216f",
      "function": "approve(address,uint256)",
      "arguments": [
        "0x2d81627869E586251c19f7b586FfdD71cf684cAD",
        "1"
      ],
      "transaction": {
        "from": "0x1faf0b93e7a1d980a41270fcced7bc0f30dbf8fe",
        "to": "0x652a88205fbf546528dcb2b84bcf696f5d46216f",
        "gas": "0xf945",
        "value": "0x0",
        "input": "0x095ea7b30000000000000000000000002d81627869e586251c19f7b586ffdd71cf684cad0000000000000000000000000000000000000000000000000000000000000001",
        "nonce": "0x55",
        "chainId": "0xaa36a7"
      },
      "additionalContracts": [],
      "isFixedGasLimit": false
    },
    {
      "hash": "0x6f44681bd13b3d7ad9378e309620deae64db90ac440ae3dfd77cbe9ef4e83387",
      "transactionType": "CALL",
      "contractName": null,
      "contractAddress": "0x2d81627869e586251c19f7b586ffdd71cf684cad",
      "function": "swap(address,address,uint256)",
      "arguments": [
        "0x652A88205FBF546528DcB2B84bcF696F5D46216F",
        "0x1D52887DF299079EefB79541B319d6175026C9Bc",
        "1"
      ],
      "transaction": {
        "from": "0x1faf0b93e7a1d980a41270fcced7bc0f30dbf8fe",
        "to": "0x2d81627869e586251c19f7b586ffdd71cf684cad",
        "gas": "0x18d3c",
        "value": "0x0",
        "input": "0xdf791e50000000000000000000000000652a88205fbf546528dcb2b84bcf696f5d46216f0000000000000000000000001d52887df299079eefb79541b319d6175026c9bc0000000000000000000000000000000000000000000000000000000000000001",
        "nonce": "0x56",
        "chainId": "0xaa36a7"
      },
      "additionalContracts": [],
      "isFixedGasLimit": false
    }
  ],
  "receipts": [
    {
      "status": "0x1",
      "cumulativeGasUsed": "0x176e2c4",
      "logs": [
        {
          "address": "0xbc7109126a7d9c4bfdfe7aad249cc9757b47f4ee",
          "topics": [
            "0xddf252ad1be2c89b69c2b068fc378daa952ba7f163c4a11628f55a4df523b3ef",
            "0x0000000000000000000000000000000000000000000000000000000000000000",
            "0x0000000000000000000000001faf0b93e7a1d980a41270fcced7bc0f30dbf8fe"
          ],
          "data": "0x00000000000000000000000000000000000000000000000579a814e10a740000",
          "blockHash": "0xf83e58db185b30ea854d7856d47b416aa6e7fde8b0f1c40308ccdb30d94664ab",
          "blockNumber": "0x646f4b",
          "transactionHash": "0x5314c1365fb17ac2a9dd23db8ebf24869d2e352c1d4cead45bb6540697b2d85e",
          "transactionIndex": "0x41",
          "logIndex": "0x94",
          "removed": false
        }
      ],
      "logsBloom": "0x00000000000000000020000000000000000000000000000000000000000000000000000000000000000000000000000000000000000000000000000000000000000000000000000000000108000000000000000000000000000000000000000000000000420000000000000000000800000000000000000000000010000000000000000000000000000000000000000000000000000000000000000000000000000000000000000000000000000000000000000000000000000000000000000000001002000000000000000000000000000000000000000000000000000020000000000000000000000000000000000000000000000000000201000000000000",
      "type": "0x2",
      "transactionHash": "0x5314c1365fb17ac2a9dd23db8ebf24869d2e352c1d4cead45bb6540697b2d85e",
      "transactionIndex": "0x41",
      "blockHash": "0xf83e58db185b30ea854d7856d47b416aa6e7fde8b0f1c40308ccdb30d94664ab",
      "blockNumber": "0x646f4b",
      "gasUsed": "0x99276",
      "effectiveGasPrice": "0x3b6a3bcbc",
      "from": "0x1faf0b93e7a1d980a41270fcced7bc0f30dbf8fe",
      "to": null,
      "contractAddress": "0xbc7109126a7d9c4bfdfe7aad249cc9757b47f4ee"
    },
    {
      "status": "0x1",
      "cumulativeGasUsed": "0x180753a",
      "logs": [
        {
          "address": "0x652a88205fbf546528dcb2b84bcf696f5d46216f",
          "topics": [
            "0xddf252ad1be2c89b69c2b068fc378daa952ba7f163c4a11628f55a4df523b3ef",
            "0x0000000000000000000000000000000000000000000000000000000000000000",
            "0x0000000000000000000000001faf0b93e7a1d980a41270fcced7bc0f30dbf8fe"
          ],
          "data": "0x00000000000000000000000000000000000000000000000579a814e10a740000",
          "blockHash": "0xf83e58db185b30ea854d7856d47b416aa6e7fde8b0f1c40308ccdb30d94664ab",
          "blockNumber": "0x646f4b",
          "transactionHash": "0x3cd9324e540f0dc9523f713fec0fac1d23e8d1a6585d34c0c9ffca6076985928",
          "transactionIndex": "0x42",
          "logIndex": "0x95",
          "removed": false
        }
      ],
      "logsBloom": "0x00000000000000000020000000000000000000000000000000000000000000000000000000000000000000000000000000000000000000000000000000000000000000000000000000000108000000000000000000000000000000000000000000000000020000000000000000000800000000000000000000000010000000000000000000000000000000000000000000000000000000000000008000000000000000000000000000000000000000000000000000000000000000000000000000000002000000000000000000000000000000000000000800000000000020000000000000000000004000000000000000000000000000000001000000000000",
      "type": "0x2",
      "transactionHash": "0x3cd9324e540f0dc9523f713fec0fac1d23e8d1a6585d34c0c9ffca6076985928",
      "transactionIndex": "0x42",
      "blockHash": "0xf83e58db185b30ea854d7856d47b416aa6e7fde8b0f1c40308ccdb30d94664ab",
      "blockNumber": "0x646f4b",
      "gasUsed": "0x99276",
      "effectiveGasPrice": "0x3b6a3bcbc",
      "from": "0x1faf0b93e7a1d980a41270fcced7bc0f30dbf8fe",
      "to": null,
      "contractAddress": "0x652a88205fbf546528dcb2b84bcf696f5d46216f"
    },
    {
      "status": "0x1",
      "cumulativeGasUsed": "0x1813e0c",
      "logs": [
        {
          "address": "0xbc7109126a7d9c4bfdfe7aad249cc9757b47f4ee",
          "topics": [
            "0xddf252ad1be2c89b69c2b068fc378daa952ba7f163c4a11628f55a4df523b3ef",
            "0x0000000000000000000000001faf0b93e7a1d980a41270fcced7bc0f30dbf8fe",
            "0x0000000000000000000000002d81627869e586251c19f7b586ffdd71cf684cad"
          ],
          "data": "0x0000000000000000000000000000000000000000000000000000000000000001",
          "blockHash": "0xf83e58db185b30ea854d7856d47b416aa6e7fde8b0f1c40308ccdb30d94664ab",
          "blockNumber": "0x646f4b",
          "transactionHash": "0x7739bc5158c41ffc50f3d54a3e7eded75cb9d16467103ea7706bbc6b611dc585",
          "transactionIndex": "0x43",
          "logIndex": "0x96",
          "removed": false
        }
      ],
      "logsBloom": "0x00000000000000000020000000000000000000000000000000000000000000000000000000000000000000000000000000000000000000000000400000000000000000000000000000000108000000000000000000000000000000000000000000000000400000000000000000000000000000000000000000000010000000000000000000000000000000000000000000000000000000000000000000000000000000100000000000000000000000000000000000000000000000000000000000001002000040000000000000000000000000000000000000000000000000000000000000000000000000000000000000000000000000000201000000000000",
      "type": "0x2",
      "transactionHash": "0x7739bc5158c41ffc50f3d54a3e7eded75cb9d16467103ea7706bbc6b611dc585",
      "transactionIndex": "0x43",
      "blockHash": "0xf83e58db185b30ea854d7856d47b416aa6e7fde8b0f1c40308ccdb30d94664ab",
      "blockNumber": "0x646f4b",
      "gasUsed": "0xc8d2",
      "effectiveGasPrice": "0x3b6a3bcbc",
      "from": "0x1faf0b93e7a1d980a41270fcced7bc0f30dbf8fe",
      "to": "0xbc7109126a7d9c4bfdfe7aad249cc9757b47f4ee",
      "contractAddress": null
    },
    {
      "status": "0x1",
      "cumulativeGasUsed": "0x181f284",
      "logs": [
        {
          "address": "0xbc7109126a7d9c4bfdfe7aad249cc9757b47f4ee",
          "topics": [
            "0x8c5be1e5ebec7d5bd14f71427d1e84f3dd0314c0f7b2291e5b200ac8c7c3b925",
            "0x0000000000000000000000001faf0b93e7a1d980a41270fcced7bc0f30dbf8fe",
            "0x0000000000000000000000002d81627869e586251c19f7b586ffdd71cf684cad"
          ],
          "data": "0x0000000000000000000000000000000000000000000000000000000000000001",
          "blockHash": "0xf83e58db185b30ea854d7856d47b416aa6e7fde8b0f1c40308ccdb30d94664ab",
          "blockNumber": "0x646f4b",
          "transactionHash": "0x1307a61dc821c352f1fa3d235e7769490fc30d396259fe581760f48773815d42",
          "transactionIndex": "0x44",
          "logIndex": "0x97",
          "removed": false
        }
      ],
      "logsBloom": "0x00000000000000000020000000000000000000000000000000000000000000000000000000000000000000000000000000000000000000000000400000200000000000000000000000000100000000000000000000000000000000000000000000000000400000000000000000000000000000000000000000000000000000000000000000000000000000000000000000000000000000000000000000000000020000100000000000000000000000000000000000000000000000000000000000001000000040000000000000000000000000000000000000000000000000000010000000000000000000000000000000000000000000000201000000000000",
      "type": "0x2",
      "transactionHash": "0x1307a61dc821c352f1fa3d235e7769490fc30d396259fe581760f48773815d42",
      "transactionIndex": "0x44",
      "blockHash": "0xf83e58db185b30ea854d7856d47b416aa6e7fde8b0f1c40308ccdb30d94664ab",
      "blockNumber": "0x646f4b",
      "gasUsed": "0xb478",
      "effectiveGasPrice": "0x3b6a3bcbc",
      "from": "0x1faf0b93e7a1d980a41270fcced7bc0f30dbf8fe",
      "to": "0xbc7109126a7d9c4bfdfe7aad249cc9757b47f4ee",
      "contractAddress": null
    },
    {
      "status": "0x1",
      "cumulativeGasUsed": "0x183121c",
      "logs": [
        {
          "address": "0xbc7109126a7d9c4bfdfe7aad249cc9757b47f4ee",
          "topics": [
            "0x8c5be1e5ebec7d5bd14f71427d1e84f3dd0314c0f7b2291e5b200ac8c7c3b925",
            "0x0000000000000000000000001faf0b93e7a1d980a41270fcced7bc0f30dbf8fe",
            "0x0000000000000000000000002d81627869e586251c19f7b586ffdd71cf684cad"
          ],
          "data": "0x0000000000000000000000000000000000000000000000000000000000000000",
          "blockHash": "0xf83e58db185b30ea854d7856d47b416aa6e7fde8b0f1c40308ccdb30d94664ab",
          "blockNumber": "0x646f4b",
          "transactionHash": "0x3b8a80b75deac0b7ff1b6ed7703276fdc1403efaf4bc660a927d8810ce847668",
          "transactionIndex": "0x45",
          "logIndex": "0x98",
          "removed": false
        },
        {
          "address": "0xbc7109126a7d9c4bfdfe7aad249cc9757b47f4ee",
          "topics": [
            "0xddf252ad1be2c89b69c2b068fc378daa952ba7f163c4a11628f55a4df523b3ef",
            "0x0000000000000000000000001faf0b93e7a1d980a41270fcced7bc0f30dbf8fe",
            "0x0000000000000000000000002d81627869e586251c19f7b586ffdd71cf684cad"
          ],
          "data": "0x0000000000000000000000000000000000000000000000000000000000000001",
          "blockHash": "0xf83e58db185b30ea854d7856d47b416aa6e7fde8b0f1c40308ccdb30d94664ab",
          "blockNumber": "0x646f4b",
          "transactionHash": "0x3b8a80b75deac0b7ff1b6ed7703276fdc1403efaf4bc660a927d8810ce847668",
          "transactionIndex": "0x45",
          "logIndex": "0x99",
          "removed": false
        },
        {
          "address": "0x33858365d5ffefc0aff57751cb7a91efedf6162c",
          "topics": [
            "0x8c5be1e5ebec7d5bd14f71427d1e84f3dd0314c0f7b2291e5b200ac8c7c3b925",
            "0x0000000000000000000000002d81627869e586251c19f7b586ffdd71cf684cad",
            "0x0000000000000000000000002d81627869e586251c19f7b586ffdd71cf684cad"
          ],
          "data": "0x0000000000000000000000000000000000000000000000000000000000000064",
          "blockHash": "0xf83e58db185b30ea854d7856d47b416aa6e7fde8b0f1c40308ccdb30d94664ab",
          "blockNumber": "0x646f4b",
          "transactionHash": "0x3b8a80b75deac0b7ff1b6ed7703276fdc1403efaf4bc660a927d8810ce847668",
          "transactionIndex": "0x45",
          "logIndex": "0x9a",
          "removed": false
        },
        {
          "address": "0x33858365d5ffefc0aff57751cb7a91efedf6162c",
          "topics": [
            "0x8c5be1e5ebec7d5bd14f71427d1e84f3dd0314c0f7b2291e5b200ac8c7c3b925",
            "0x0000000000000000000000002d81627869e586251c19f7b586ffdd71cf684cad",
            "0x0000000000000000000000002d81627869e586251c19f7b586ffdd71cf684cad"
          ],
          "data": "0x0000000000000000000000000000000000000000000000000000000000000000",
          "blockHash": "0xf83e58db185b30ea854d7856d47b416aa6e7fde8b0f1c40308ccdb30d94664ab",
          "blockNumber": "0x646f4b",
          "transactionHash": "0x3b8a80b75deac0b7ff1b6ed7703276fdc1403efaf4bc660a927d8810ce847668",
          "transactionIndex": "0x45",
          "logIndex": "0x9b",
          "removed": false
        },
        {
          "address": "0x33858365d5ffefc0aff57751cb7a91efedf6162c",
          "topics": [
            "0xddf252ad1be2c89b69c2b068fc378daa952ba7f163c4a11628f55a4df523b3ef",
            "0x0000000000000000000000002d81627869e586251c19f7b586ffdd71cf684cad",
            "0x0000000000000000000000001faf0b93e7a1d980a41270fcced7bc0f30dbf8fe"
          ],
          "data": "0x0000000000000000000000000000000000000000000000000000000000000064",
          "blockHash": "0xf83e58db185b30ea854d7856d47b416aa6e7fde8b0f1c40308ccdb30d94664ab",
          "blockNumber": "0x646f4b",
          "transactionHash": "0x3b8a80b75deac0b7ff1b6ed7703276fdc1403efaf4bc660a927d8810ce847668",
          "transactionIndex": "0x45",
          "logIndex": "0x9c",
          "removed": false
        }
      ],
      "logsBloom": "0x00000000000000000020000000000000000000000000200000000000000000000000000000000000000000000000000000000000000000000000400000200000000000000000000000000108000000000000000000000000000000000000000000000000400000000000000000000000000000000000000000000010002000000000000000000000000000000000000000000000000000000000000000000000020000100000000000000000000000000000000000000000000000000020000000001002000040000000000000000000000000000000000000000000000000000010000000000000000000000000000000000000000000000201000000000000",
      "type": "0x2",
      "transactionHash": "0x3b8a80b75deac0b7ff1b6ed7703276fdc1403efaf4bc660a927d8810ce847668",
      "transactionIndex": "0x45",
      "blockHash": "0xf83e58db185b30ea854d7856d47b416aa6e7fde8b0f1c40308ccdb30d94664ab",
      "blockNumber": "0x646f4b",
      "gasUsed": "0x11f98",
      "effectiveGasPrice": "0x3b6a3bcbc",
      "from": "0x1faf0b93e7a1d980a41270fcced7bc0f30dbf8fe",
      "to": "0x2d81627869e586251c19f7b586ffdd71cf684cad",
      "contractAddress": null
    },
    {
      "status": "0x1",
      "cumulativeGasUsed": "0x183daee",
      "logs": [
        {
          "address": "0x652a88205fbf546528dcb2b84bcf696f5d46216f",
          "topics": [
            "0xddf252ad1be2c89b69c2b068fc378daa952ba7f163c4a11628f55a4df523b3ef",
            "0x0000000000000000000000001faf0b93e7a1d980a41270fcced7bc0f30dbf8fe",
            "0x0000000000000000000000002d81627869e586251c19f7b586ffdd71cf684cad"
          ],
          "data": "0x0000000000000000000000000000000000000000000000000000000000000001",
          "blockHash": "0xf83e58db185b30ea854d7856d47b416aa6e7fde8b0f1c40308ccdb30d94664ab",
          "blockNumber": "0x646f4b",
          "transactionHash": "0xd859e28a9a655939b13bb982cae94e95ff36af50accaa5cf72edb6d94c35ba2d",
          "transactionIndex": "0x46",
          "logIndex": "0x9d",
          "removed": false
        }
      ],
      "logsBloom": "0x00000000000000000020000000000000000000000000000000000000000000000000000000000000000000000000000000000000000000000000400000000000000000000000000000000108000000000000000000000000000000000000000000000000000000000000000000000000000000000000000000000010000000000000000000000000000000000000000000000000000000000000008000000000000000100000000000000000000000000000000000000000000000000000000000000002000040000000000000000000000000000000000800000000000000000000000000000000004000000000000000000000000000000001000000000000",
      "type": "0x2",
      "transactionHash": "0xd859e28a9a655939b13bb982cae94e95ff36af50accaa5cf72edb6d94c35ba2d",
      "transactionIndex": "0x46",
      "blockHash": "0xf83e58db185b30ea854d7856d47b416aa6e7fde8b0f1c40308ccdb30d94664ab",
      "blockNumber": "0x646f4b",
      "gasUsed": "0xc8d2",
      "effectiveGasPrice": "0x3b6a3bcbc",
      "from": "0x1faf0b93e7a1d980a41270fcced7bc0f30dbf8fe",
      "to": "0x652a88205fbf546528dcb2b84bcf696f5d46216f",
      "contractAddress": null
    },
    {
      "status": "0x1",
      "cumulativeGasUsed": "0x1848f66",
      "logs": [
        {
          "address": "0x652a88205fbf546528dcb2b84bcf696f5d46216f",
          "topics": [
            "0x8c5be1e5ebec7d5bd14f71427d1e84f3dd0314c0f7b2291e5b200ac8c7c3b925",
            "0x0000000000000000000000001faf0b93e7a1d980a41270fcced7bc0f30dbf8fe",
            "0x0000000000000000000000002d81627869e586251c19f7b586ffdd71cf684cad"
          ],
          "data": "0x0000000000000000000000000000000000000000000000000000000000000001",
          "blockHash": "0xf83e58db185b30ea854d7856d47b416aa6e7fde8b0f1c40308ccdb30d94664ab",
          "blockNumber": "0x646f4b",
          "transactionHash": "0x83965cc22413c179a016778ef698f2ae068457884ffba40323c3475fd6833f4e",
          "transactionIndex": "0x47",
          "logIndex": "0x9e",
          "removed": false
        }
      ],
      "logsBloom": "0x00000000000000000020000000000000000000000000000000000000000000000000000000000000000000000000000000000000000000000000400000200000000000000000000000000100000000000000000000000000000000000000000000000000000000000000000000000000000000000000000000000000000000000000000000000000000000000000000000000000000000000000008000000000020000100000000000000000000000000000000000000000000000000000000000000000000040000000000000000000000000000000000800000000000000000010000000000000004000000000000000000000000000000001000000000000",
      "type": "0x2",
      "transactionHash": "0x83965cc22413c179a016778ef698f2ae068457884ffba40323c3475fd6833f4e",
      "transactionIndex": "0x47",
      "blockHash": "0xf83e58db185b30ea854d7856d47b416aa6e7fde8b0f1c40308ccdb30d94664ab",
      "blockNumber": "0x646f4b",
      "gasUsed": "0xb478",
      "effectiveGasPrice": "0x3b6a3bcbc",
      "from": "0x1faf0b93e7a1d980a41270fcced7bc0f30dbf8fe",
      "to": "0x652a88205fbf546528dcb2b84bcf696f5d46216f",
      "contractAddress": null
    },
    {
      "status": "0x1",
      "cumulativeGasUsed": "0x185aefe",
      "logs": [
        {
          "address": "0x652a88205fbf546528dcb2b84bcf696f5d46216f",
          "topics": [
            "0x8c5be1e5ebec7d5bd14f71427d1e84f3dd0314c0f7b2291e5b200ac8c7c3b925",
            "0x0000000000000000000000001faf0b93e7a1d980a41270fcced7bc0f30dbf8fe",
            "0x0000000000000000000000002d81627869e586251c19f7b586ffdd71cf684cad"
          ],
          "data": "0x0000000000000000000000000000000000000000000000000000000000000000",
          "blockHash": "0xf83e58db185b30ea854d7856d47b416aa6e7fde8b0f1c40308ccdb30d94664ab",
          "blockNumber": "0x646f4b",
          "transactionHash": "0x6f44681bd13b3d7ad9378e309620deae64db90ac440ae3dfd77cbe9ef4e83387",
          "transactionIndex": "0x48",
          "logIndex": "0x9f",
          "removed": false
        },
        {
          "address": "0x652a88205fbf546528dcb2b84bcf696f5d46216f",
          "topics": [
            "0xddf252ad1be2c89b69c2b068fc378daa952ba7f163c4a11628f55a4df523b3ef",
            "0x0000000000000000000000001faf0b93e7a1d980a41270fcced7bc0f30dbf8fe",
            "0x0000000000000000000000002d81627869e586251c19f7b586ffdd71cf684cad"
          ],
          "data": "0x0000000000000000000000000000000000000000000000000000000000000001",
          "blockHash": "0xf83e58db185b30ea854d7856d47b416aa6e7fde8b0f1c40308ccdb30d94664ab",
          "blockNumber": "0x646f4b",
          "transactionHash": "0x6f44681bd13b3d7ad9378e309620deae64db90ac440ae3dfd77cbe9ef4e83387",
          "transactionIndex": "0x48",
          "logIndex": "0xa0",
          "removed": false
        },
        {
          "address": "0x1d52887df299079eefb79541b319d6175026c9bc",
          "topics": [
            "0x8c5be1e5ebec7d5bd14f71427d1e84f3dd0314c0f7b2291e5b200ac8c7c3b925",
            "0x0000000000000000000000002d81627869e586251c19f7b586ffdd71cf684cad",
            "0x0000000000000000000000002d81627869e586251c19f7b586ffdd71cf684cad"
          ],
          "data": "0x0000000000000000000000000000000000000000000000000000000000000064",
          "blockHash": "0xf83e58db185b30ea854d7856d47b416aa6e7fde8b0f1c40308ccdb30d94664ab",
          "blockNumber": "0x646f4b",
          "transactionHash": "0x6f44681bd13b3d7ad9378e309620deae64db90ac440ae3dfd77cbe9ef4e83387",
          "transactionIndex": "0x48",
          "logIndex": "0xa1",
          "removed": false
        },
        {
          "address": "0x1d52887df299079eefb79541b319d6175026c9bc",
          "topics": [
            "0x8c5be1e5ebec7d5bd14f71427d1e84f3dd0314c0f7b2291e5b200ac8c7c3b925",
            "0x0000000000000000000000002d81627869e586251c19f7b586ffdd71cf684cad",
            "0x0000000000000000000000002d81627869e586251c19f7b586ffdd71cf684cad"
          ],
          "data": "0x0000000000000000000000000000000000000000000000000000000000000000",
          "blockHash": "0xf83e58db185b30ea854d7856d47b416aa6e7fde8b0f1c40308ccdb30d94664ab",
          "blockNumber": "0x646f4b",
          "transactionHash": "0x6f44681bd13b3d7ad9378e309620deae64db90ac440ae3dfd77cbe9ef4e83387",
          "transactionIndex": "0x48",
          "logIndex": "0xa2",
          "removed": false
        },
        {
          "address": "0x1d52887df299079eefb79541b319d6175026c9bc",
          "topics": [
            "0xddf252ad1be2c89b69c2b068fc378daa952ba7f163c4a11628f55a4df523b3ef",
            "0x0000000000000000000000002d81627869e586251c19f7b586ffdd71cf684cad",
            "0x0000000000000000000000001faf0b93e7a1d980a41270fcced7bc0f30dbf8fe"
          ],
          "data": "0x0000000000000000000000000000000000000000000000000000000000000064",
          "blockHash": "0xf83e58db185b30ea854d7856d47b416aa6e7fde8b0f1c40308ccdb30d94664ab",
          "blockNumber": "0x646f4b",
          "transactionHash": "0x6f44681bd13b3d7ad9378e309620deae64db90ac440ae3dfd77cbe9ef4e83387",
          "transactionIndex": "0x48",
          "logIndex": "0xa3",
          "removed": false
        }
      ],
      "logsBloom": "0x00000000000000400020001000000000000000000000000000000000000000000000000000000000000000000000000000000000000000000000400000200000000000000000000000000108000000000000400000000000000000000000000000000000000000000000000000000000000000000000000000000010000000000000000000000000000000000000000000000000000000000000008000000000020000100000000000000000000000000000000000000000000000000000000000000002000040000000000000000000000000000000000800000000000000000010000000000000004000000000000000000000000000000001000000000000",
      "type": "0x2",
      "transactionHash": "0x6f44681bd13b3d7ad9378e309620deae64db90ac440ae3dfd77cbe9ef4e83387",
      "transactionIndex": "0x48",
      "blockHash": "0xf83e58db185b30ea854d7856d47b416aa6e7fde8b0f1c40308ccdb30d94664ab",
      "blockNumber": "0x646f4b",
      "gasUsed": "0x11f98",
      "effectiveGasPrice": "0x3b6a3bcbc",
      "from": "0x1faf0b93e7a1d980a41270fcced7bc0f30dbf8fe",
      "to": "0x2d81627869e586251c19f7b586ffdd71cf684cad",
      "contractAddress": null
    }
  ],
  "libraries": [],
  "pending": [],
  "returns": {},
  "timestamp": 1724773370,
  "chain": 11155111,
  "commit": "c345cb9"
}