{
  "transactions": [
    {
      "hash": "0x4f6227ee412e8b23b6bfb3dae1d18ad50e7d1d1d22897a74269f416747990e22",
      "transactionType": "CALL",
      "contractName": null,
      "contractAddress": "0x5a773dc7cbade04977521d1f6957bbca0a4a8466",
      "function": "approve(address,uint256)",
      "arguments": [
        "0x5A773DC7cBADE04977521d1f6957BbCa0A4A8466",
        "115792089237316195423570985008687907853269984665640564039457584007913129639935"
      ],
      "transaction": {
        "from": "0x1faf0b93e7a1d980a41270fcced7bc0f30dbf8fe",
        "to": "0x5a773dc7cbade04977521d1f6957bbca0a4a8466",
        "gas": "0x1d015",
        "value": "0x0",
        "input": "0x095ea7b30000000000000000000000005a773dc7cbade04977521d1f6957bbca0a4a8466ffffffffffffffffffffffffffffffffffffffffffffffffffffffffffffffff",
        "nonce": "0x46",
        "chainId": "0xaa36a7"
      },
      "additionalContracts": [],
      "isFixedGasLimit": false
    },
    {
      "hash": "0xbc9279458aa299a7b5060cca572eaac2a6e13067cfd2246000e20cce7175e54f",
      "transactionType": "CALL",
      "contractName": null,
      "contractAddress": "0x5a773dc7cbade04977521d1f6957bbca0a4a8466",
      "function": "swap(address,address,uint256)",
      "arguments": [
        "0x44b5208C746D445a879adEa4b1774d710951d416",
        "0xD9D37aE47fDeb5A31722E0196db4DB0d33e680b0",
        "10"
      ],
      "transaction": {
        "from": "0x1faf0b93e7a1d980a41270fcced7bc0f30dbf8fe",
        "to": "0x5a773dc7cbade04977521d1f6957bbca0a4a8466",
        "gas": "0x18a6c",
        "value": "0x0",
        "input": "0xdf791e5000000000000000000000000044b5208c746d445a879adea4b1774d710951d416000000000000000000000000d9d37ae47fdeb5a31722e0196db4db0d33e680b0000000000000000000000000000000000000000000000000000000000000000a",
        "nonce": "0x47",
        "chainId": "0xaa36a7"
      },
      "additionalContracts": [],
      "isFixedGasLimit": false
    },
    {
      "hash": "0x782140085545b07dd4445dfbd2420affbd543a9d05c6dec38f46bbb79f24debc",
      "transactionType": "CALL",
      "contractName": null,
      "contractAddress": "0x5a773dc7cbade04977521d1f6957bbca0a4a8466",
      "function": "swap(address,address,uint256)",
      "arguments": [
        "0xD9D37aE47fDeb5A31722E0196db4DB0d33e680b0",
        "0x44b5208C746D445a879adEa4b1774d710951d416",
        "20"
      ],
      "transaction": {
        "from": "0x1faf0b93e7a1d980a41270fcced7bc0f30dbf8fe",
        "to": "0x5a773dc7cbade04977521d1f6957bbca0a4a8466",
        "gas": "0x1d4e8",
        "value": "0x0",
        "input": "0xdf791e50000000000000000000000000d9d37ae47fdeb5a31722e0196db4db0d33e680b000000000000000000000000044b5208c746d445a879adea4b1774d710951d4160000000000000000000000000000000000000000000000000000000000000014",
        "nonce": "0x48",
        "chainId": "0xaa36a7"
      },
      "additionalContracts": [],
      "isFixedGasLimit": false
    },
    {
      "hash": "0x03b913c47f36242ce1f1c8f60d0c2457831f1816b7ac7052faffcc27959d42fc",
      "transactionType": "CALL",
      "contractName": null,
      "contractAddress": "0x5a773dc7cbade04977521d1f6957bbca0a4a8466",
      "function": "swap(address,address,uint256)",
      "arguments": [
        "0x44b5208C746D445a879adEa4b1774d710951d416",
        "0xD9D37aE47fDeb5A31722E0196db4DB0d33e680b0",
        "24"
      ],
      "transaction": {
        "from": "0x1faf0b93e7a1d980a41270fcced7bc0f30dbf8fe",
        "to": "0x5a773dc7cbade04977521d1f6957bbca0a4a8466",
        "gas": "0x1d43b",
        "value": "0x0",
        "input": "0xdf791e5000000000000000000000000044b5208c746d445a879adea4b1774d710951d416000000000000000000000000d9d37ae47fdeb5a31722e0196db4db0d33e680b00000000000000000000000000000000000000000000000000000000000000018",
        "nonce": "0x49",
        "chainId": "0xaa36a7"
      },
      "additionalContracts": [],
      "isFixedGasLimit": false
    },
    {
      "hash": "0x10164c26ef07ae1bbf0d534479c1cf01e3086bdfab175c7ee97e0e4590f0d322",
      "transactionType": "CALL",
      "contractName": null,
      "contractAddress": "0x5a773dc7cbade04977521d1f6957bbca0a4a8466",
      "function": "swap(address,address,uint256)",
      "arguments": [
        "0xD9D37aE47fDeb5A31722E0196db4DB0d33e680b0",
        "0x44b5208C746D445a879adEa4b1774d710951d416",
        "30"
      ],
      "transaction": {
        "from": "0x1faf0b93e7a1d980a41270fcced7bc0f30dbf8fe",
        "to": "0x5a773dc7cbade04977521d1f6957bbca0a4a8466",
        "gas": "0x1d4e8",
        "value": "0x0",
        "input": "0xdf791e50000000000000000000000000d9d37ae47fdeb5a31722e0196db4db0d33e680b000000000000000000000000044b5208c746d445a879adea4b1774d710951d416000000000000000000000000000000000000000000000000000000000000001e",
        "nonce": "0x4a",
        "chainId": "0xaa36a7"
      },
      "additionalContracts": [],
      "isFixedGasLimit": false
    },
    {
      "hash": "0xfeb3a45203825844a3e303519f9a45a4cc325ad3c9827d046f1bfb1e495e98ea",
      "transactionType": "CALL",
      "contractName": null,
      "contractAddress": "0x5a773dc7cbade04977521d1f6957bbca0a4a8466",
      "function": "swap(address,address,uint256)",
      "arguments": [
        "0x44b5208C746D445a879adEa4b1774d710951d416",
        "0xD9D37aE47fDeb5A31722E0196db4DB0d33e680b0",
        "41"
      ],
      "transaction": {
        "from": "0x1faf0b93e7a1d980a41270fcced7bc0f30dbf8fe",
        "to": "0x5a773dc7cbade04977521d1f6957bbca0a4a8466",
        "gas": "0x1d43b",
        "value": "0x0",
        "input": "0xdf791e5000000000000000000000000044b5208c746d445a879adea4b1774d710951d416000000000000000000000000d9d37ae47fdeb5a31722e0196db4db0d33e680b00000000000000000000000000000000000000000000000000000000000000029",
        "nonce": "0x4b",
        "chainId": "0xaa36a7"
      },
      "additionalContracts": [],
      "isFixedGasLimit": false
    },
    {
      "hash": "0xf4ad62dbdc6cce33a09875f9819713228aca06cd5b70231ec762360cc58f4691",
      "transactionType": "CALL",
      "contractName": null,
      "contractAddress": "0x5a773dc7cbade04977521d1f6957bbca0a4a8466",
      "function": "swap(address,address,uint256)",
      "arguments": [
        "0xD9D37aE47fDeb5A31722E0196db4DB0d33e680b0",
        "0x44b5208C746D445a879adEa4b1774d710951d416",
        "45"
      ],
      "transaction": {
        "from": "0x1faf0b93e7a1d980a41270fcced7bc0f30dbf8fe",
        "to": "0x5a773dc7cbade04977521d1f6957bbca0a4a8466",
        "gas": "0x1d4e8",
        "value": "0x0",
        "input": "0xdf791e50000000000000000000000000d9d37ae47fdeb5a31722e0196db4db0d33e680b000000000000000000000000044b5208c746d445a879adea4b1774d710951d416000000000000000000000000000000000000000000000000000000000000002d",
        "nonce": "0x4c",
        "chainId": "0xaa36a7"
      },
      "additionalContracts": [],
      "isFixedGasLimit": false
    }
  ],
  "receipts": [
    {
      "status": "0x1",
      "cumulativeGasUsed": "0x108b575",
      "logs": [
        {
          "address": "0x44b5208c746d445a879adea4b1774d710951d416",
          "topics": [
            "0x8c5be1e5ebec7d5bd14f71427d1e84f3dd0314c0f7b2291e5b200ac8c7c3b925",
            "0x0000000000000000000000001faf0b93e7a1d980a41270fcced7bc0f30dbf8fe",
            "0x0000000000000000000000005a773dc7cbade04977521d1f6957bbca0a4a8466"
          ],
          "data": "0xffffffffffffffffffffffffffffffffffffffffffffffffffffffffffffffff",
          "blockHash": "0x600a217837b14d6333775ed57f933ff7f0857b647ed9221686b48f81c7be9faa",
          "blockNumber": "0x6451d5",
          "transactionHash": "0x4f6227ee412e8b23b6bfb3dae1d18ad50e7d1d1d22897a74269f416747990e22",
          "transactionIndex": "0x4f",
          "logIndex": "0xc3",
          "removed": false
        },
        {
          "address": "0xd9d37ae47fdeb5a31722e0196db4db0d33e680b0",
          "topics": [
            "0x8c5be1e5ebec7d5bd14f71427d1e84f3dd0314c0f7b2291e5b200ac8c7c3b925",
            "0x0000000000000000000000001faf0b93e7a1d980a41270fcced7bc0f30dbf8fe",
            "0x0000000000000000000000005a773dc7cbade04977521d1f6957bbca0a4a8466"
          ],
          "data": "0xffffffffffffffffffffffffffffffffffffffffffffffffffffffffffffffff",
          "blockHash": "0x600a217837b14d6333775ed57f933ff7f0857b647ed9221686b48f81c7be9faa",
          "blockNumber": "0x6451d5",
          "transactionHash": "0x4f6227ee412e8b23b6bfb3dae1d18ad50e7d1d1d22897a74269f416747990e22",
          "transactionIndex": "0x4f",
          "logIndex": "0xc4",
          "removed": false
        }
      ],
      "logsBloom": "0x00000000000000000020000000000000000000000000000000000000000000000000000000000000000000100000000000000000000000000000000000200000000000000000000000002100000000000000000000000000000000000000000000000800000000000000000000000000000000000000002000000000000000000000000000000000000000000000000000000000000000000200040000000000020000000000020000000000000000000000000000000000000000000010000000000000000000000100000000000000000000000000000000000000000000000010000000000000000000000000000000000000000000000001000000000000",
      "type": "0x2",
      "transactionHash": "0x4f6227ee412e8b23b6bfb3dae1d18ad50e7d1d1d22897a74269f416747990e22",
      "transactionIndex": "0x4f",
      "blockHash": "0x600a217837b14d6333775ed57f933ff7f0857b647ed9221686b48f81c7be9faa",
      "blockNumber": "0x6451d5",
      "gasUsed": "0x14ffe",
      "effectiveGasPrice": "0x24730b2fc",
      "from": "0x1faf0b93e7a1d980a41270fcced7bc0f30dbf8fe",
      "to": "0x5a773dc7cbade04977521d1f6957bbca0a4a8466",
      "contractAddress": null
    },
    {
      "status": "0x1",
      "cumulativeGasUsed": "0x109d304",
      "logs": [
        {
          "address": "0x44b5208c746d445a879adea4b1774d710951d416",
          "topics": [
            "0xddf252ad1be2c89b69c2b068fc378daa952ba7f163c4a11628f55a4df523b3ef",
            "0x0000000000000000000000001faf0b93e7a1d980a41270fcced7bc0f30dbf8fe",
            "0x0000000000000000000000005a773dc7cbade04977521d1f6957bbca0a4a8466"
          ],
          "data": "0x000000000000000000000000000000000000000000000000000000000000000a",
          "blockHash": "0x600a217837b14d6333775ed57f933ff7f0857b647ed9221686b48f81c7be9faa",
          "blockNumber": "0x6451d5",
          "transactionHash": "0xbc9279458aa299a7b5060cca572eaac2a6e13067cfd2246000e20cce7175e54f",
          "transactionIndex": "0x50",
          "logIndex": "0xc5",
          "removed": false
        },
        {
          "address": "0xd9d37ae47fdeb5a31722e0196db4db0d33e680b0",
          "topics": [
            "0x8c5be1e5ebec7d5bd14f71427d1e84f3dd0314c0f7b2291e5b200ac8c7c3b925",
            "0x0000000000000000000000005a773dc7cbade04977521d1f6957bbca0a4a8466",
            "0x0000000000000000000000005a773dc7cbade04977521d1f6957bbca0a4a8466"
          ],
          "data": "0x000000000000000000000000000000000000000000000000000000000000000a",
          "blockHash": "0x600a217837b14d6333775ed57f933ff7f0857b647ed9221686b48f81c7be9faa",
          "blockNumber": "0x6451d5",
          "transactionHash": "0xbc9279458aa299a7b5060cca572eaac2a6e13067cfd2246000e20cce7175e54f",
          "transactionIndex": "0x50",
          "logIndex": "0xc6",
          "removed": false
        },
        {
          "address": "0xd9d37ae47fdeb5a31722e0196db4db0d33e680b0",
          "topics": [
            "0x8c5be1e5ebec7d5bd14f71427d1e84f3dd0314c0f7b2291e5b200ac8c7c3b925",
            "0x0000000000000000000000005a773dc7cbade04977521d1f6957bbca0a4a8466",
            "0x0000000000000000000000005a773dc7cbade04977521d1f6957bbca0a4a8466"
          ],
          "data": "0x0000000000000000000000000000000000000000000000000000000000000000",
          "blockHash": "0x600a217837b14d6333775ed57f933ff7f0857b647ed9221686b48f81c7be9faa",
          "blockNumber": "0x6451d5",
          "transactionHash": "0xbc9279458aa299a7b5060cca572eaac2a6e13067cfd2246000e20cce7175e54f",
          "transactionIndex": "0x50",
          "logIndex": "0xc7",
          "removed": false
        },
        {
          "address": "0xd9d37ae47fdeb5a31722e0196db4db0d33e680b0",
          "topics": [
            "0xddf252ad1be2c89b69c2b068fc378daa952ba7f163c4a11628f55a4df523b3ef",
            "0x0000000000000000000000005a773dc7cbade04977521d1f6957bbca0a4a8466",
            "0x0000000000000000000000001faf0b93e7a1d980a41270fcced7bc0f30dbf8fe"
          ],
          "data": "0x000000000000000000000000000000000000000000000000000000000000000a",
          "blockHash": "0x600a217837b14d6333775ed57f933ff7f0857b647ed9221686b48f81c7be9faa",
          "blockNumber": "0x6451d5",
          "transactionHash": "0xbc9279458aa299a7b5060cca572eaac2a6e13067cfd2246000e20cce7175e54f",
          "transactionIndex": "0x50",
          "logIndex": "0xc8",
          "removed": false
        }
      ],
      "logsBloom": "0x00000000000000000020000000000000000000000000000000000000000000000000000000000000000000100000000000000000000000000000000000200000000000000000000000002108000000000000000000000000000000000000000000000800000000000000000000000000000000000000002000000010000000000000000000000000000000000000000000000000000000000200040000000000020000000000020000000000000000000000000000000000000000000010000000000002000000000100000000000000000000000000000000000000000000000010000000000000000000000000000000000000000000000001000000000000",
      "type": "0x2",
      "transactionHash": "0xbc9279458aa299a7b5060cca572eaac2a6e13067cfd2246000e20cce7175e54f",
      "transactionIndex": "0x50",
      "blockHash": "0x600a217837b14d6333775ed57f933ff7f0857b647ed9221686b48f81c7be9faa",
      "blockNumber": "0x6451d5",
      "gasUsed": "0x11d8f",
      "effectiveGasPrice": "0x24730b2fc",
      "from": "0x1faf0b93e7a1d980a41270fcced7bc0f30dbf8fe",
      "to": "0x5a773dc7cbade04977521d1f6957bbca0a4a8466",
      "contractAddress": null
    },
    {
      "status": "0x1",
      "cumulativeGasUsed": "0x10b9aec",
      "logs": [
        {
          "address": "0xd9d37ae47fdeb5a31722e0196db4db0d33e680b0",
          "topics": [
            "0xddf252ad1be2c89b69c2b068fc378daa952ba7f163c4a11628f55a4df523b3ef",
            "0x0000000000000000000000001faf0b93e7a1d980a41270fcced7bc0f30dbf8fe",
            "0x0000000000000000000000005a773dc7cbade04977521d1f6957bbca0a4a8466"
          ],
          "data": "0x0000000000000000000000000000000000000000000000000000000000000014",
          "blockHash": "0x600a217837b14d6333775ed57f933ff7f0857b647ed9221686b48f81c7be9faa",
          "blockNumber": "0x6451d5",
          "transactionHash": "0x782140085545b07dd4445dfbd2420affbd543a9d05c6dec38f46bbb79f24debc",
          "transactionIndex": "0x52",
          "logIndex": "0xc9",
          "removed": false
        },
        {
          "address": "0x44b5208c746d445a879adea4b1774d710951d416",
          "topics": [
            "0x8c5be1e5ebec7d5bd14f71427d1e84f3dd0314c0f7b2291e5b200ac8c7c3b925",
            "0x0000000000000000000000005a773dc7cbade04977521d1f6957bbca0a4a8466",
            "0x0000000000000000000000005a773dc7cbade04977521d1f6957bbca0a4a8466"
          ],
          "data": "0x0000000000000000000000000000000000000000000000000000000000000018",
          "blockHash": "0x600a217837b14d6333775ed57f933ff7f0857b647ed9221686b48f81c7be9faa",
          "blockNumber": "0x6451d5",
          "transactionHash": "0x782140085545b07dd4445dfbd2420affbd543a9d05c6dec38f46bbb79f24debc",
          "transactionIndex": "0x52",
          "logIndex": "0xca",
          "removed": false
        },
        {
          "address": "0x44b5208c746d445a879adea4b1774d710951d416",
          "topics": [
            "0x8c5be1e5ebec7d5bd14f71427d1e84f3dd0314c0f7b2291e5b200ac8c7c3b925",
            "0x0000000000000000000000005a773dc7cbade04977521d1f6957bbca0a4a8466",
            "0x0000000000000000000000005a773dc7cbade04977521d1f6957bbca0a4a8466"
          ],
          "data": "0x0000000000000000000000000000000000000000000000000000000000000000",
          "blockHash": "0x600a217837b14d6333775ed57f933ff7f0857b647ed9221686b48f81c7be9faa",
          "blockNumber": "0x6451d5",
          "transactionHash": "0x782140085545b07dd4445dfbd2420affbd543a9d05c6dec38f46bbb79f24debc",
          "transactionIndex": "0x52",
          "logIndex": "0xcb",
          "removed": false
        },
        {
          "address": "0x44b5208c746d445a879adea4b1774d710951d416",
          "topics": [
            "0xddf252ad1be2c89b69c2b068fc378daa952ba7f163c4a11628f55a4df523b3ef",
            "0x0000000000000000000000005a773dc7cbade04977521d1f6957bbca0a4a8466",
            "0x0000000000000000000000001faf0b93e7a1d980a41270fcced7bc0f30dbf8fe"
          ],
          "data": "0x0000000000000000000000000000000000000000000000000000000000000018",
          "blockHash": "0x600a217837b14d6333775ed57f933ff7f0857b647ed9221686b48f81c7be9faa",
          "blockNumber": "0x6451d5",
          "transactionHash": "0x782140085545b07dd4445dfbd2420affbd543a9d05c6dec38f46bbb79f24debc",
          "transactionIndex": "0x52",
          "logIndex": "0xcc",
          "removed": false
        }
      ],
      "logsBloom": "0x00000000000000000020000000000000000000000000000000000000000000000000000000000000000000100000000000000000000000000000000000200000000000000000000000002108000000000000000000000000000000000000000000000800000000000000000000000000000000000000002000000010000000000000000000000000000000000000000000000000000000000200040000000000020000000000020000000000000000000000000000000000000000000010000000000002000000000100000000000000000000000000000000000000000000000010000000000000000000000000000000000000000000000001000000000000",
      "type": "0x2",
      "transactionHash": "0x782140085545b07dd4445dfbd2420affbd543a9d05c6dec38f46bbb79f24debc",
      "transactionIndex": "0x52",
      "blockHash": "0x600a217837b14d6333775ed57f933ff7f0857b647ed9221686b48f81c7be9faa",
      "blockNumber": "0x6451d5",
      "gasUsed": "0x1537c",
      "effectiveGasPrice": "0x24730b2fc",
      "from": "0x1faf0b93e7a1d980a41270fcced7bc0f30dbf8fe",
      "to": "0x5a773dc7cbade04977521d1f6957bbca0a4a8466",
      "contractAddress": null
    },
    {
      "status": "0x1",
      "cumulativeGasUsed": "0x10cedeb",
      "logs": [
        {
          "address": "0x44b5208c746d445a879adea4b1774d710951d416",
          "topics": [
            "0xddf252ad1be2c89b69c2b068fc378daa952ba7f163c4a11628f55a4df523b3ef",
            "0x0000000000000000000000001faf0b93e7a1d980a41270fcced7bc0f30dbf8fe",
            "0x0000000000000000000000005a773dc7cbade04977521d1f6957bbca0a4a8466"
          ],
          "data": "0x0000000000000000000000000000000000000000000000000000000000000018",
          "blockHash": "0x600a217837b14d6333775ed57f933ff7f0857b647ed9221686b48f81c7be9faa",
          "blockNumber": "0x6451d5",
          "transactionHash": "0x03b913c47f36242ce1f1c8f60d0c2457831f1816b7ac7052faffcc27959d42fc",
          "transactionIndex": "0x53",
          "logIndex": "0xcd",
          "removed": false
        },
        {
          "address": "0xd9d37ae47fdeb5a31722e0196db4db0d33e680b0",
          "topics": [
            "0x8c5be1e5ebec7d5bd14f71427d1e84f3dd0314c0f7b2291e5b200ac8c7c3b925",
            "0x0000000000000000000000005a773dc7cbade04977521d1f6957bbca0a4a8466",
            "0x0000000000000000000000005a773dc7cbade04977521d1f6957bbca0a4a8466"
          ],
          "data": "0x000000000000000000000000000000000000000000000000000000000000001e",
          "blockHash": "0x600a217837b14d6333775ed57f933ff7f0857b647ed9221686b48f81c7be9faa",
          "blockNumber": "0x6451d5",
          "transactionHash": "0x03b913c47f36242ce1f1c8f60d0c2457831f1816b7ac7052faffcc27959d42fc",
          "transactionIndex": "0x53",
          "logIndex": "0xce",
          "removed": false
        },
        {
          "address": "0xd9d37ae47fdeb5a31722e0196db4db0d33e680b0",
          "topics": [
            "0x8c5be1e5ebec7d5bd14f71427d1e84f3dd0314c0f7b2291e5b200ac8c7c3b925",
            "0x0000000000000000000000005a773dc7cbade04977521d1f6957bbca0a4a8466",
            "0x0000000000000000000000005a773dc7cbade04977521d1f6957bbca0a4a8466"
          ],
          "data": "0x0000000000000000000000000000000000000000000000000000000000000000",
          "blockHash": "0x600a217837b14d6333775ed57f933ff7f0857b647ed9221686b48f81c7be9faa",
          "blockNumber": "0x6451d5",
          "transactionHash": "0x03b913c47f36242ce1f1c8f60d0c2457831f1816b7ac7052faffcc27959d42fc",
          "transactionIndex": "0x53",
          "logIndex": "0xcf",
          "removed": false
        },
        {
          "address": "0xd9d37ae47fdeb5a31722e0196db4db0d33e680b0",
          "topics": [
            "0xddf252ad1be2c89b69c2b068fc378daa952ba7f163c4a11628f55a4df523b3ef",
            "0x0000000000000000000000005a773dc7cbade04977521d1f6957bbca0a4a8466",
            "0x0000000000000000000000001faf0b93e7a1d980a41270fcced7bc0f30dbf8fe"
          ],
          "data": "0x000000000000000000000000000000000000000000000000000000000000001e",
          "blockHash": "0x600a217837b14d6333775ed57f933ff7f0857b647ed9221686b48f81c7be9faa",
          "blockNumber": "0x6451d5",
          "transactionHash": "0x03b913c47f36242ce1f1c8f60d0c2457831f1816b7ac7052faffcc27959d42fc",
          "transactionIndex": "0x53",
          "logIndex": "0xd0",
          "removed": false
        }
      ],
      "logsBloom": "0x00000000000000000020000000000000000000000000000000000000000000000000000000000000000000100000000000000000000000000000000000200000000000000000000000002108000000000000000000000000000000000000000000000800000000000000000000000000000000000000002000000010000000000000000000000000000000000000000000000000000000000200040000000000020000000000020000000000000000000000000000000000000000000010000000000002000000000100000000000000000000000000000000000000000000000010000000000000000000000000000000000000000000000001000000000000",
      "type": "0x2",
      "transactionHash": "0x03b913c47f36242ce1f1c8f60d0c2457831f1816b7ac7052faffcc27959d42fc",
      "transactionIndex": "0x53",
      "blockHash": "0x600a217837b14d6333775ed57f933ff7f0857b647ed9221686b48f81c7be9faa",
      "blockNumber": "0x6451d5",
      "gasUsed": "0x152ff",
      "effectiveGasPrice": "0x24730b2fc",
      "from": "0x1faf0b93e7a1d980a41270fcced7bc0f30dbf8fe",
      "to": "0x5a773dc7cbade04977521d1f6957bbca0a4a8466",
      "contractAddress": null
    },
    {
      "status": "0x1",
      "cumulativeGasUsed": "0x10e4167",
      "logs": [
        {
          "address": "0xd9d37ae47fdeb5a31722e0196db4db0d33e680b0",
          "topics": [
            "0xddf252ad1be2c89b69c2b068fc378daa952ba7f163c4a11628f55a4df523b3ef",
            "0x0000000000000000000000001faf0b93e7a1d980a41270fcced7bc0f30dbf8fe",
            "0x0000000000000000000000005a773dc7cbade04977521d1f6957bbca0a4a8466"
          ],
          "data": "0x000000000000000000000000000000000000000000000000000000000000001e",
          "blockHash": "0x600a217837b14d6333775ed57f933ff7f0857b647ed9221686b48f81c7be9faa",
          "blockNumber": "0x6451d5",
          "transactionHash": "0x10164c26ef07ae1bbf0d534479c1cf01e3086bdfab175c7ee97e0e4590f0d322",
          "transactionIndex": "0x54",
          "logIndex": "0xd1",
          "removed": false
        },
        {
          "address": "0x44b5208c746d445a879adea4b1774d710951d416",
          "topics": [
            "0x8c5be1e5ebec7d5bd14f71427d1e84f3dd0314c0f7b2291e5b200ac8c7c3b925",
            "0x0000000000000000000000005a773dc7cbade04977521d1f6957bbca0a4a8466",
            "0x0000000000000000000000005a773dc7cbade04977521d1f6957bbca0a4a8466"
          ],
          "data": "0x0000000000000000000000000000000000000000000000000000000000000029",
          "blockHash": "0x600a217837b14d6333775ed57f933ff7f0857b647ed9221686b48f81c7be9faa",
          "blockNumber": "0x6451d5",
          "transactionHash": "0x10164c26ef07ae1bbf0d534479c1cf01e3086bdfab175c7ee97e0e4590f0d322",
          "transactionIndex": "0x54",
          "logIndex": "0xd2",
          "removed": false
        },
        {
          "address": "0x44b5208c746d445a879adea4b1774d710951d416",
          "topics": [
            "0x8c5be1e5ebec7d5bd14f71427d1e84f3dd0314c0f7b2291e5b200ac8c7c3b925",
            "0x0000000000000000000000005a773dc7cbade04977521d1f6957bbca0a4a8466",
            "0x0000000000000000000000005a773dc7cbade04977521d1f6957bbca0a4a8466"
          ],
          "data": "0x0000000000000000000000000000000000000000000000000000000000000000",
          "blockHash": "0x600a217837b14d6333775ed57f933ff7f0857b647ed9221686b48f81c7be9faa",
          "blockNumber": "0x6451d5",
          "transactionHash": "0x10164c26ef07ae1bbf0d534479c1cf01e3086bdfab175c7ee97e0e4590f0d322",
          "transactionIndex": "0x54",
          "logIndex": "0xd3",
          "removed": false
        },
        {
          "address": "0x44b5208c746d445a879adea4b1774d710951d416",
          "topics": [
            "0xddf252ad1be2c89b69c2b068fc378daa952ba7f163c4a11628f55a4df523b3ef",
            "0x0000000000000000000000005a773dc7cbade04977521d1f6957bbca0a4a8466",
            "0x0000000000000000000000001faf0b93e7a1d980a41270fcced7bc0f30dbf8fe"
          ],
          "data": "0x0000000000000000000000000000000000000000000000000000000000000029",
          "blockHash": "0x600a217837b14d6333775ed57f933ff7f0857b647ed9221686b48f81c7be9faa",
          "blockNumber": "0x6451d5",
          "transactionHash": "0x10164c26ef07ae1bbf0d534479c1cf01e3086bdfab175c7ee97e0e4590f0d322",
          "transactionIndex": "0x54",
          "logIndex": "0xd4",
          "removed": false
        }
      ],
      "logsBloom": "0x00000000000000000020000000000000000000000000000000000000000000000000000000000000000000100000000000000000000000000000000000200000000000000000000000002108000000000000000000000000000000000000000000000800000000000000000000000000000000000000002000000010000000000000000000000000000000000000000000000000000000000200040000000000020000000000020000000000000000000000000000000000000000000010000000000002000000000100000000000000000000000000000000000000000000000010000000000000000000000000000000000000000000000001000000000000",
      "type": "0x2",
      "transactionHash": "0x10164c26ef07ae1bbf0d534479c1cf01e3086bdfab175c7ee97e0e4590f0d322",
      "transactionIndex": "0x54",
      "blockHash": "0x600a217837b14d6333775ed57f933ff7f0857b647ed9221686b48f81c7be9faa",
      "blockNumber": "0x6451d5",
      "gasUsed": "0x1537c",
      "effectiveGasPrice": "0x24730b2fc",
      "from": "0x1faf0b93e7a1d980a41270fcced7bc0f30dbf8fe",
      "to": "0x5a773dc7cbade04977521d1f6957bbca0a4a8466",
      "contractAddress": null
    },
    {
      "status": "0x1",
      "cumulativeGasUsed": "0x10f9466",
      "logs": [
        {
          "address": "0x44b5208c746d445a879adea4b1774d710951d416",
          "topics": [
            "0xddf252ad1be2c89b69c2b068fc378daa952ba7f163c4a11628f55a4df523b3ef",
            "0x0000000000000000000000001faf0b93e7a1d980a41270fcced7bc0f30dbf8fe",
            "0x0000000000000000000000005a773dc7cbade04977521d1f6957bbca0a4a8466"
          ],
          "data": "0x0000000000000000000000000000000000000000000000000000000000000029",
          "blockHash": "0x600a217837b14d6333775ed57f933ff7f0857b647ed9221686b48f81c7be9faa",
          "blockNumber": "0x6451d5",
          "transactionHash": "0xfeb3a45203825844a3e303519f9a45a4cc325ad3c9827d046f1bfb1e495e98ea",
          "transactionIndex": "0x55",
          "logIndex": "0xd5",
          "removed": false
        },
        {
          "address": "0xd9d37ae47fdeb5a31722e0196db4db0d33e680b0",
          "topics": [
            "0x8c5be1e5ebec7d5bd14f71427d1e84f3dd0314c0f7b2291e5b200ac8c7c3b925",
            "0x0000000000000000000000005a773dc7cbade04977521d1f6957bbca0a4a8466",
            "0x0000000000000000000000005a773dc7cbade04977521d1f6957bbca0a4a8466"
          ],
          "data": "0x0000000000000000000000000000000000000000000000000000000000000041",
          "blockHash": "0x600a217837b14d6333775ed57f933ff7f0857b647ed9221686b48f81c7be9faa",
          "blockNumber": "0x6451d5",
          "transactionHash": "0xfeb3a45203825844a3e303519f9a45a4cc325ad3c9827d046f1bfb1e495e98ea",
          "transactionIndex": "0x55",
          "logIndex": "0xd6",
          "removed": false
        },
        {
          "address": "0xd9d37ae47fdeb5a31722e0196db4db0d33e680b0",
          "topics": [
            "0x8c5be1e5ebec7d5bd14f71427d1e84f3dd0314c0f7b2291e5b200ac8c7c3b925",
            "0x0000000000000000000000005a773dc7cbade04977521d1f6957bbca0a4a8466",
            "0x0000000000000000000000005a773dc7cbade04977521d1f6957bbca0a4a8466"
          ],
          "data": "0x0000000000000000000000000000000000000000000000000000000000000000",
          "blockHash": "0x600a217837b14d6333775ed57f933ff7f0857b647ed9221686b48f81c7be9faa",
          "blockNumber": "0x6451d5",
          "transactionHash": "0xfeb3a45203825844a3e303519f9a45a4cc325ad3c9827d046f1bfb1e495e98ea",
          "transactionIndex": "0x55",
          "logIndex": "0xd7",
          "removed": false
        },
        {
          "address": "0xd9d37ae47fdeb5a31722e0196db4db0d33e680b0",
          "topics": [
            "0xddf252ad1be2c89b69c2b068fc378daa952ba7f163c4a11628f55a4df523b3ef",
            "0x0000000000000000000000005a773dc7cbade04977521d1f6957bbca0a4a8466",
            "0x0000000000000000000000001faf0b93e7a1d980a41270fcced7bc0f30dbf8fe"
          ],
          "data": "0x0000000000000000000000000000000000000000000000000000000000000041",
          "blockHash": "0x600a217837b14d6333775ed57f933ff7f0857b647ed9221686b48f81c7be9faa",
          "blockNumber": "0x6451d5",
          "transactionHash": "0xfeb3a45203825844a3e303519f9a45a4cc325ad3c9827d046f1bfb1e495e98ea",
          "transactionIndex": "0x55",
          "logIndex": "0xd8",
          "removed": false
        }
      ],
      "logsBloom": "0x00000000000000000020000000000000000000000000000000000000000000000000000000000000000000100000000000000000000000000000000000200000000000000000000000002108000000000000000000000000000000000000000000000800000000000000000000000000000000000000002000000010000000000000000000000000000000000000000000000000000000000200040000000000020000000000020000000000000000000000000000000000000000000010000000000002000000000100000000000000000000000000000000000000000000000010000000000000000000000000000000000000000000000001000000000000",
      "type": "0x2",
      "transactionHash": "0xfeb3a45203825844a3e303519f9a45a4cc325ad3c9827d046f1bfb1e495e98ea",
      "transactionIndex": "0x55",
      "blockHash": "0x600a217837b14d6333775ed57f933ff7f0857b647ed9221686b48f81c7be9faa",
      "blockNumber": "0x6451d5",
      "gasUsed": "0x152ff",
      "effectiveGasPrice": "0x24730b2fc",
      "from": "0x1faf0b93e7a1d980a41270fcced7bc0f30dbf8fe",
      "to": "0x5a773dc7cbade04977521d1f6957bbca0a4a8466",
      "contractAddress": null
    }
  ],
  "libraries": [],
  "pending": [],
  "returns": {},
  "timestamp": 1724671076,
  "chain": 11155111,
  "commit": "c345cb9"
}