{
  "transactions": [
    {
      "hash": "0x49c00a2e6c2b43823ef8bd59ebafe8653d47c9f4bbffdd3282c08a2086d444bb",
      "transactionType": "CALL",
      "contractName": null,
      "contractAddress": "0x75d5b2b9a623c573821d5af20900ac812cc14943",
      "function": "approve(address,uint256)",
      "arguments": [
        "0x1faF0b93E7A1d980a41270FCCeD7bC0F30dBf8fe",
        "1000000000000000000000000"
      ],
      "transaction": {
        "from": "0x1faf0b93e7a1d980a41270fcced7bc0f30dbf8fe",
        "to": "0x75d5b2b9a623c573821d5af20900ac812cc14943",
        "gas": "0xf9c8",
        "value": "0x0",
        "input": "0x095ea7b30000000000000000000000001faf0b93e7a1d980a41270fcced7bc0f30dbf8fe00000000000000000000000000000000000000000000d3c21bcecceda1000000",
        "nonce": "0x22",
        "chainId": "0xaa36a7"
      },
      "additionalContracts": [],
      "isFixedGasLimit": false
    },
    {
      "hash": "0x8641612cda1a31d6bead1e7f8d7551ad1ede14d221624451e8bef47406663191",
      "transactionType": "CALL",
      "contractName": null,
      "contractAddress": "0x75d5b2b9a623c573821d5af20900ac812cc14943",
      "function": "transferFrom(address,address,uint256)",
      "arguments": [
        "0x1faF0b93E7A1d980a41270FCCeD7bC0F30dBf8fe",
        "0x5b73C5498c1E3b4dbA84de0F1833c4a029d90519",
        "1000000000000000000000000"
      ],
      "transaction": {
        "from": "0x1faf0b93e7a1d980a41270fcced7bc0f30dbf8fe",
        "to": "0x75d5b2b9a623c573821d5af20900ac812cc14943",
        "gas": "0x11c61",
        "value": "0x0",
        "input": "0x23b872dd0000000000000000000000001faf0b93e7a1d980a41270fcced7bc0f30dbf8fe0000000000000000000000005b73c5498c1e3b4dba84de0f1833c4a029d9051900000000000000000000000000000000000000000000d3c21bcecceda1000000",
        "nonce": "0x23",
        "chainId": "0xaa36a7"
      },
      "additionalContracts": [],
      "isFixedGasLimit": false
    }
  ],
  "receipts": [
    {
      "status": "0x1",
      "cumulativeGasUsed": "0x175a103",
      "logs": [
        {
          "address": "0x75d5b2b9a623c573821d5af20900ac812cc14943",
          "topics": [
            "0x8c5be1e5ebec7d5bd14f71427d1e84f3dd0314c0f7b2291e5b200ac8c7c3b925",
            "0x0000000000000000000000001faf0b93e7a1d980a41270fcced7bc0f30dbf8fe",
            "0x0000000000000000000000001faf0b93e7a1d980a41270fcced7bc0f30dbf8fe"
          ],
          "data": "0x00000000000000000000000000000000000000000000d3c21bcecceda1000000",
          "blockHash": "0x7e934ef6c575494e06d91048ae1d201995534cc51804f1ba791d4ca6c250b71e",
          "blockNumber": "0x62437a",
          "transactionHash": "0x49c00a2e6c2b43823ef8bd59ebafe8653d47c9f4bbffdd3282c08a2086d444bb",
          "transactionIndex": "0x3e",
          "logIndex": "0x150",
          "removed": false
        }
      ],
      "logsBloom": "0x00000000000000000020000000000000000000000000000000000000000000000000000000000000000000000000000000000000000000000000000000200000000000000000000000000100000000000000000000000000000000000000000000000000000000000000000000000000000000000000000000000000000000000000000000000000000000000000000000000000000000000000000001000000020000000000000000000000000000000000000000000000000000000000000000000000000000000000000000000000000000000000000000000000000000000010000000000000000400000000000004000000000000000001000000000000",
      "type": "0x2",
      "transactionHash": "0x49c00a2e6c2b43823ef8bd59ebafe8653d47c9f4bbffdd3282c08a2086d444bb",
      "transactionIndex": "0x3e",
      "blockHash": "0x7e934ef6c575494e06d91048ae1d201995534cc51804f1ba791d4ca6c250b71e",
      "blockNumber": "0x62437a",
      "gasUsed": "0xb4d7",
      "effectiveGasPrice": "0xc6cb08df",
      "from": "0x1faf0b93e7a1d980a41270fcced7bc0f30dbf8fe",
      "to": "0x75d5b2b9a623c573821d5af20900ac812cc14943",
      "contractAddress": null
    },
    {
      "status": "0x1",
      "cumulativeGasUsed": "0x1766376",
      "logs": [
        {
          "address": "0x75d5b2b9a623c573821d5af20900ac812cc14943",
          "topics": [
            "0x8c5be1e5ebec7d5bd14f71427d1e84f3dd0314c0f7b2291e5b200ac8c7c3b925",
            "0x0000000000000000000000001faf0b93e7a1d980a41270fcced7bc0f30dbf8fe",
            "0x0000000000000000000000001faf0b93e7a1d980a41270fcced7bc0f30dbf8fe"
          ],
          "data": "0x0000000000000000000000000000000000000000000000000000000000000000",
          "blockHash": "0x7e934ef6c575494e06d91048ae1d201995534cc51804f1ba791d4ca6c250b71e",
          "blockNumber": "0x62437a",
          "transactionHash": "0x8641612cda1a31d6bead1e7f8d7551ad1ede14d221624451e8bef47406663191",
          "transactionIndex": "0x3f",
          "logIndex": "0x151",
          "removed": false
        },
        {
          "address": "0x75d5b2b9a623c573821d5af20900ac812cc14943",
          "topics": [
            "0xddf252ad1be2c89b69c2b068fc378daa952ba7f163c4a11628f55a4df523b3ef",
            "0x0000000000000000000000001faf0b93e7a1d980a41270fcced7bc0f30dbf8fe",
            "0x0000000000000000000000005b73c5498c1e3b4dba84de0f1833c4a029d90519"
          ],
          "data": "0x00000000000000000000000000000000000000000000d3c21bcecceda1000000",
          "blockHash": "0x7e934ef6c575494e06d91048ae1d201995534cc51804f1ba791d4ca6c250b71e",
          "blockNumber": "0x62437a",
          "transactionHash": "0x8641612cda1a31d6bead1e7f8d7551ad1ede14d221624451e8bef47406663191",
          "transactionIndex": "0x3f",
          "logIndex": "0x152",
          "removed": false
        }
      ],
      "logsBloom": "0x00000000000000000020000000000000000000000000000000000000000000000000000000000000000000000000000000000000000000000000000000200000000000000000000000000108000000000000000000000000000000000000000000000000000000000000000000000000008000000000000000000010000000000000000000000000000000000000000000000000000000000000000001000000020000000000000000000002000000000000000000000000000000000000000000000002000000000000000000000000000000000000000000000000000000000010000000000000000400000000000004000000000000000001000000000200",
      "type": "0x2",
      "transactionHash": "0x8641612cda1a31d6bead1e7f8d7551ad1ede14d221624451e8bef47406663191",
      "transactionIndex": "0x3f",
      "blockHash": "0x7e934ef6c575494e06d91048ae1d201995534cc51804f1ba791d4ca6c250b71e",
      "blockNumber": "0x62437a",
      "gasUsed": "0xc273",
      "effectiveGasPrice": "0xc6cb08df",
      "from": "0x1faf0b93e7a1d980a41270fcced7bc0f30dbf8fe",
      "to": "0x75d5b2b9a623c573821d5af20900ac812cc14943",
      "contractAddress": null
    }
  ],
  "libraries": [],
  "pending": [],
  "returns": {},
  "timestamp": 1722835638,
  "chain": 11155111,
  "commit": "46c2e4f"
}